{
  "contractName": "Auth",
  "abi": [
    {
      "inputs": [],
      "stateMutability": "nonpayable",
      "type": "constructor"
    },
    {
      "inputs": [],
      "name": "owner",
      "outputs": [
        {
          "internalType": "address",
          "name": "",
          "type": "address"
        }
      ],
      "stateMutability": "view",
      "type": "function",
      "constant": true
    },
    {
      "inputs": [
        {
          "internalType": "address",
          "name": "_userAddress",
          "type": "address"
        },
        {
          "internalType": "enum Auth.Roles",
          "name": "_role",
          "type": "uint8"
        }
      ],
      "name": "permissionUser",
      "outputs": [],
      "stateMutability": "nonpayable",
      "type": "function"
    },
    {
      "inputs": [
        {
          "internalType": "address",
          "name": "_addr",
          "type": "address"
        },
        {
          "internalType": "enum Auth.Roles",
          "name": "_role",
          "type": "uint8"
        }
      ],
      "name": "hasRole",
      "outputs": [
        {
          "internalType": "bool",
          "name": "",
          "type": "bool"
        }
      ],
      "stateMutability": "view",
      "type": "function",
      "constant": true
    },
    {
      "inputs": [
        {
          "internalType": "address",
          "name": "_addr",
          "type": "address"
        }
      ],
      "name": "getRole",
      "outputs": [
        {
          "internalType": "uint256",
          "name": "",
          "type": "uint256"
        }
      ],
      "stateMutability": "view",
      "type": "function",
      "constant": true
    }
  ],
  "bytecode": "0x608060405234801561001057600080fd5b50336000806101000a81548173ffffffffffffffffffffffffffffffffffffffff021916908373ffffffffffffffffffffffffffffffffffffffff1602179055506002600160008060009054906101000a900473ffffffffffffffffffffffffffffffffffffffff1673ffffffffffffffffffffffffffffffffffffffff1673ffffffffffffffffffffffffffffffffffffffff16815260200190815260200160002060006101000a81548160ff021916908360068111156100ce57fe5b02179055506103d9806100e26000396000f3fe608060405234801561001057600080fd5b5060043610610069576000357c010000000000000000000000000000000000000000000000000000000090048063442767331461006e5780638da5cb5b146100c657806395a8c58d14610110578063dc4a478b14610179575b600080fd5b6100b06004803603602081101561008457600080fd5b81019080803573ffffffffffffffffffffffffffffffffffffffff1690602001909291905050506101ca565b6040518082815260200191505060405180910390f35b6100ce61022b565b604051808273ffffffffffffffffffffffffffffffffffffffff1673ffffffffffffffffffffffffffffffffffffffff16815260200191505060405180910390f35b61015f6004803603604081101561012657600080fd5b81019080803573ffffffffffffffffffffffffffffffffffffffff169060200190929190803560ff169060200190929190505050610250565b604051808215151515815260200191505060405180910390f35b6101c86004803603604081101561018f57600080fd5b81019080803573ffffffffffffffffffffffffffffffffffffffff169060200190929190803560ff1690602001909291905050506102d0565b005b6000600160008373ffffffffffffffffffffffffffffffffffffffff1673ffffffffffffffffffffffffffffffffffffffff16815260200190815260200160002060009054906101000a900460ff16600681111561022457fe5b9050919050565b6000809054906101000a900473ffffffffffffffffffffffffffffffffffffffff1681565b600081600681111561025e57fe5b600160008573ffffffffffffffffffffffffffffffffffffffff1673ffffffffffffffffffffffffffffffffffffffff16815260200190815260200160002060009054906101000a900460ff1660068111156102b657fe5b14156102c557600190506102ca565b600090505b92915050565b600260068111156102dd57fe5b600160003373ffffffffffffffffffffffffffffffffffffffff1673ffffffffffffffffffffffffffffffffffffffff16815260200190815260200160002060009054906101000a900460ff16600681111561033557fe5b1461033f57600080fd5b80600160008473ffffffffffffffffffffffffffffffffffffffff1673ffffffffffffffffffffffffffffffffffffffff16815260200190815260200160002060006101000a81548160ff0219169083600681111561039a57fe5b0217905550505056fea2646970667358221220cef8a3c0046ccc5d565a677a93bf090dba90c8516f475dcb841d772f5e7c11c364736f6c63430006020033",
  "source": "pragma solidity >=0.4.22 <0.8.0;\r\n\r\n/**\r\n@dev contract to enable a nonintelligent asset location to operate on the asset\r\n@dev under the instruction of a suitably authorised human.\r\n@author Gaurav Kaushik\r\n*/\r\ncontract Auth{\r\n  address public owner;\r\n  enum Roles{ authorised, notAuthorised, admin, seller, buyer, buyerbank, sellerbank } //add others as they are needed\r\n  mapping(address => Roles) auth; /*everyone is authorised by default. As authorised is the deault 0 value TODO*/\r\n  /**\r\n  @dev constructor\r\n  */\r\n  constructor() public {\r\n    owner = msg.sender;\r\n    auth[owner] = Roles.admin; //owner is automatically admin\r\n  }\r\n  /**\r\n  @dev We need a modifier to permission users\r\n  */\r\n  modifier onlyAdmin() {\r\n    require(auth[msg.sender] == Roles.admin);\r\n    _;\r\n  }\r\n  /**\r\n  @dev Provision a user with a particular role.  Can also remove/change permission\r\n  @param _userAddress - this is the address of the user you want to permission\r\n  */\r\n  function permissionUser(address _userAddress, Roles _role) public onlyAdmin() {\r\n    auth[_userAddress] = _role;\r\n  }\r\n  /**\r\n  @dev Called to check whether an address has a particular role.\r\n  @param _addr the address of the entity to check roles for\r\n  @param _role - enum role\r\n  */\r\n  function hasRole(address _addr, Roles _role) view public returns(bool){\r\n    if (auth[_addr] == _role) {return true;}\r\n    else {return false;}\r\n  }\r\n  /**\r\n  @dev Returns a particular role for an address\r\n  @param _addr the address of the entity to get roles\r\n  @return return the role of the address\r\n  */\r\n  function getRole(address _addr) view public returns(uint){\r\n    return uint(auth[_addr]);\r\n  }\r\n}\r\n",
  "sourcePath": "/Truffle/contracts/Auth.sol",
  "compiler": {
    "name": "solc",
    "version": "0.6.2+commit.bacdbe57.Emscripten.clang"
  },
  "schemaVersion": "3.2.2",
  "updatedAt": "2020-11-09T18:01:27.325Z",
  "networkType": "ethereum",
  "devdoc": {
    "author": "Gaurav Kaushik",
    "details": "contract to enable a nonintelligent asset location to operate on the assetunder the instruction of a suitably authorised human.",
    "methods": {
      "constructor": {
        "details": "constructor"
      },
      "getRole(address)": {
        "details": "Returns a particular role for an address",
        "params": {
          "_addr": "the address of the entity to get roles"
        },
        "returns": {
          "_0": "return the role of the address"
        }
      },
      "hasRole(address,uint8)": {
        "details": "Called to check whether an address has a particular role.",
        "params": {
          "_addr": "the address of the entity to check roles for",
          "_role": "- enum role"
        }
      },
      "permissionUser(address,uint8)": {
        "details": "Provision a user with a particular role.  Can also remove/change permission",
        "params": {
          "_userAddress": "- this is the address of the user you want to permission"
        }
      }
    }
  },
  "userdoc": {
    "methods": {}
  }
}