{
  "contractName": "LetterOfCredits",
  "abi": [
    {
      "anonymous": false,
      "inputs": [
        {
          "indexed": false,
          "internalType": "uint256",
          "name": "LCId",
          "type": "uint256"
        },
        {
          "indexed": false,
          "internalType": "bytes32",
          "name": "LCTokenNumber",
          "type": "bytes32"
        },
        {
          "indexed": false,
          "internalType": "address",
          "name": "OwnerAddress",
          "type": "address"
        },
        {
          "indexed": false,
          "internalType": "string",
          "name": "BuyerMetadata",
          "type": "string"
        },
        {
          "indexed": false,
          "internalType": "string",
          "name": "SellerMetadata",
          "type": "string"
        },
        {
          "indexed": false,
          "internalType": "string",
          "name": "ProductMetadata",
          "type": "string"
        },
        {
          "indexed": false,
          "internalType": "bytes32",
          "name": "LCStatus",
          "type": "bytes32"
        },
        {
          "indexed": false,
          "internalType": "bytes32",
          "name": "LCTimestamp",
          "type": "bytes32"
        }
      ],
      "name": "createLCEvent",
      "type": "event"
    },
    {
      "anonymous": false,
      "inputs": [
        {
          "indexed": false,
          "internalType": "uint256",
          "name": "LCId",
          "type": "uint256"
        },
        {
          "indexed": false,
          "internalType": "bytes32",
          "name": "LCTokenNumber",
          "type": "bytes32"
        },
        {
          "indexed": false,
          "internalType": "string",
          "name": "ProductMetadata",
          "type": "string"
        },
        {
          "indexed": false,
          "internalType": "bytes32",
          "name": "LCStatus",
          "type": "bytes32"
        },
        {
          "indexed": false,
          "internalType": "bytes32",
          "name": "LCTimestamp",
          "type": "bytes32"
        }
      ],
      "name": "updateLCEvent",
      "type": "event"
    },
    {
      "inputs": [
        {
          "internalType": "uint256",
          "name": "",
          "type": "uint256"
        }
      ],
      "name": "LCIDArray",
      "outputs": [
        {
          "internalType": "uint256",
          "name": "LCId",
          "type": "uint256"
        }
      ],
      "stateMutability": "view",
      "type": "function",
      "constant": true
    },
    {
      "inputs": [
        {
          "internalType": "uint256",
          "name": "",
          "type": "uint256"
        }
      ],
      "name": "LetterOfCreditArray",
      "outputs": [
        {
          "internalType": "uint256",
          "name": "LCId",
          "type": "uint256"
        },
        {
          "internalType": "bytes32",
          "name": "LCTokenNumber",
          "type": "bytes32"
        },
        {
          "internalType": "address",
          "name": "OwnerAddress",
          "type": "address"
        },
        {
          "internalType": "string",
          "name": "BuyerMetadata",
          "type": "string"
        },
        {
          "internalType": "string",
          "name": "SellerMetadata",
          "type": "string"
        },
        {
          "internalType": "string",
          "name": "ProductMetadata",
          "type": "string"
        },
        {
          "internalType": "bytes32",
          "name": "LCStatus",
          "type": "bytes32"
        },
        {
          "internalType": "bytes32",
          "name": "LCTimestamp",
          "type": "bytes32"
        }
      ],
      "stateMutability": "view",
      "type": "function",
      "constant": true
    },
    {
      "inputs": [
        {
          "internalType": "uint256",
          "name": "",
          "type": "uint256"
        }
      ],
      "name": "TokenURIArray",
      "outputs": [
        {
          "internalType": "string",
          "name": "TokenURI",
          "type": "string"
        }
      ],
      "stateMutability": "view",
      "type": "function",
      "constant": true
    },
    {
      "inputs": [],
      "name": "counter",
      "outputs": [
        {
          "internalType": "uint256",
          "name": "",
          "type": "uint256"
        }
      ],
      "stateMutability": "view",
      "type": "function",
      "constant": true
    },
    {
      "inputs": [
        {
          "internalType": "bytes32",
          "name": "LCTokenNumber",
          "type": "bytes32"
        },
        {
          "internalType": "address",
          "name": "OwnerAddress",
          "type": "address"
        },
        {
          "internalType": "string",
          "name": "BuyerMetadata",
          "type": "string"
        },
        {
          "internalType": "string",
          "name": "SellerMetadata",
          "type": "string"
        },
        {
          "internalType": "string",
          "name": "ProductMetadata",
          "type": "string"
        },
        {
          "internalType": "bytes32",
          "name": "LCStatus",
          "type": "bytes32"
        },
        {
          "internalType": "bytes32",
          "name": "LCTimestamp",
          "type": "bytes32"
        }
      ],
      "name": "createLC",
      "outputs": [
        {
          "internalType": "uint256",
          "name": "",
          "type": "uint256"
        }
      ],
      "stateMutability": "nonpayable",
      "type": "function"
    },
    {
      "inputs": [
        {
          "internalType": "uint256",
          "name": "LCId",
          "type": "uint256"
        }
      ],
      "name": "readLC",
      "outputs": [
        {
          "internalType": "bytes32",
          "name": "LCTokenNumber",
          "type": "bytes32"
        },
        {
          "internalType": "address",
          "name": "OwnerAddress",
          "type": "address"
        },
        {
          "internalType": "string",
          "name": "ProductMetadata",
          "type": "string"
        },
        {
          "internalType": "bytes32",
          "name": "LCStatus",
          "type": "bytes32"
        },
        {
          "internalType": "bytes32",
          "name": "LCTimestamp",
          "type": "bytes32"
        },
        {
          "internalType": "string",
          "name": "BuyerMetadata",
          "type": "string"
        },
        {
          "internalType": "string",
          "name": "SellerMetadata",
          "type": "string"
        }
      ],
      "stateMutability": "view",
      "type": "function",
      "constant": true
    },
    {
      "inputs": [
        {
          "internalType": "uint256",
          "name": "LCId",
          "type": "uint256"
        },
        {
          "internalType": "bytes32",
          "name": "LCStatus",
          "type": "bytes32"
        },
        {
          "internalType": "bytes32",
          "name": "LCTimestamp",
          "type": "bytes32"
        }
      ],
      "name": "updateLCStatus",
      "outputs": [
        {
          "internalType": "uint256",
          "name": "",
          "type": "uint256"
        }
      ],
      "stateMutability": "nonpayable",
      "type": "function"
    },
    {
      "inputs": [
        {
          "internalType": "uint256",
          "name": "LCId",
          "type": "uint256"
        },
        {
          "internalType": "address",
          "name": "OwnerAddress",
          "type": "address"
        },
        {
          "internalType": "bytes32",
          "name": "LCStatus",
          "type": "bytes32"
        },
        {
          "internalType": "bytes32",
          "name": "LCTimestamp",
          "type": "bytes32"
        }
      ],
      "name": "updateLCOwnerAndStatus",
      "outputs": [
        {
          "internalType": "uint256",
          "name": "",
          "type": "uint256"
        }
      ],
      "stateMutability": "nonpayable",
      "type": "function"
    },
    {
      "inputs": [
        {
          "internalType": "uint256",
          "name": "LCId",
          "type": "uint256"
        },
        {
          "internalType": "string",
          "name": "TokenURI",
          "type": "string"
        }
      ],
      "name": "setLCTokenURI",
      "outputs": [
        {
          "internalType": "uint256",
          "name": "",
          "type": "uint256"
        }
      ],
      "stateMutability": "nonpayable",
      "type": "function"
    },
    {
      "inputs": [],
      "name": "getLCIDArrayLength",
      "outputs": [
        {
          "internalType": "uint256",
          "name": "",
          "type": "uint256"
        }
      ],
      "stateMutability": "view",
      "type": "function",
      "constant": true
    },
    {
      "inputs": [],
      "name": "getLetterOfCreditArrayLength",
      "outputs": [
        {
          "internalType": "uint256",
          "name": "",
          "type": "uint256"
        }
      ],
      "stateMutability": "view",
      "type": "function",
      "constant": true
    },
    {
      "inputs": [
        {
          "internalType": "bytes32",
          "name": "LCTokenNumber",
          "type": "bytes32"
        }
      ],
      "name": "getLCId",
      "outputs": [
        {
          "internalType": "uint256",
          "name": "LCId",
          "type": "uint256"
        }
      ],
      "stateMutability": "view",
      "type": "function",
      "constant": true
    },
    {
      "inputs": [
        {
          "internalType": "uint256",
          "name": "LCId",
          "type": "uint256"
        }
      ],
      "name": "getLCTokenURI",
      "outputs": [
        {
          "internalType": "string",
          "name": "TokenURI",
          "type": "string"
        }
      ],
      "stateMutability": "view",
      "type": "function",
      "constant": true
    }
  ],
  "bytecode": "0x6080604052600160065534801561001557600080fd5b50611dbb806100256000396000f3fe608060405234801561001057600080fd5b50600436106100ec576000357c0100000000000000000000000000000000000000000000000000000000900480639941db89116100a9578063b7e806a311610083578063b7e806a31461098a578063d19e4a5b146109a8578063d5b0ef80146109fe578063e254624414610a74576100ec565b80639941db89146106da578063b22d3aa914610781578063b63a07a414610948576100ec565b80630cbea764146100f15780631566f958146101ca578063387bbfa11461027157806361bc221a1461043f5780637ecb920f1461045d5780637ee237801461049f575b600080fd5b6101b46004803603604081101561010757600080fd5b81019080803590602001909291908035906020019064010000000081111561012e57600080fd5b82018360208201111561014057600080fd5b8035906020019184600183028401116401000000008311171561016257600080fd5b91908080601f016020809104026020016040519081016040528093929190818152602001838380828437600081840152601f19601f820116905080830192505050505050509192919290505050610a92565b6040518082815260200191505060405180910390f35b6101f6600480360360208110156101e057600080fd5b8101908080359060200190929190505050610b2c565b6040518080602001828103825283818151815260200191508051906020019080838360005b8381101561023657808201518184015260208101905061021b565b50505050905090810190601f1680156102635780820380516001836020036101000a031916815260200191505b509250505060405180910390f35b61029d6004803603602081101561028757600080fd5b8101908080359060200190929190505050610beb565b604051808981526020018881526020018773ffffffffffffffffffffffffffffffffffffffff1673ffffffffffffffffffffffffffffffffffffffff168152602001806020018060200180602001868152602001858152602001848103845289818151815260200191508051906020019080838360005b8381101561032f578082015181840152602081019050610314565b50505050905090810190601f16801561035c5780820380516001836020036101000a031916815260200191505b50848103835288818151815260200191508051906020019080838360005b8381101561039557808201518184015260208101905061037a565b50505050905090810190601f1680156103c25780820380516001836020036101000a031916815260200191505b50848103825287818151815260200191508051906020019080838360005b838110156103fb5780820151818401526020810190506103e0565b50505050905090810190601f1680156104285780820380516001836020036101000a031916815260200191505b509b50505050505050505050505060405180910390f35b610447610e28565b6040518082815260200191505060405180910390f35b6104896004803603602081101561047357600080fd5b8101908080359060200190929190505050610e2e565b6040518082815260200191505060405180910390f35b6106c4600480360360e08110156104b557600080fd5b8101908080359060200190929190803573ffffffffffffffffffffffffffffffffffffffff169060200190929190803590602001906401000000008111156104fc57600080fd5b82018360208201111561050e57600080fd5b8035906020019184600183028401116401000000008311171561053057600080fd5b91908080601f016020809104026020016040519081016040528093929190818152602001838380828437600081840152601f19601f8201169050808301925050505050505091929192908035906020019064010000000081111561059357600080fd5b8201836020820111156105a557600080fd5b803590602001918460018302840111640100000000831117156105c757600080fd5b91908080601f016020809104026020016040519081016040528093929190818152602001838380828437600081840152601f19601f8201169050808301925050505050505091929192908035906020019064010000000081111561062a57600080fd5b82018360208201111561063c57600080fd5b8035906020019184600183028401116401000000008311171561065e57600080fd5b91908080601f016020809104026020016040519081016040528093929190818152602001838380828437600081840152601f19601f8201169050808301925050505050505091929192908035906020019092919080359060200190929190505050610e55565b6040518082815260200191505060405180910390f35b610706600480360360208110156106f057600080fd5b8101908080359060200190929190505050611456565b6040518080602001828103825283818151815260200191508051906020019080838360005b8381101561074657808201518184015260208101905061072b565b50505050905090810190601f1680156107735780820380516001836020036101000a031916815260200191505b509250505060405180910390f35b6107ad6004803603602081101561079757600080fd5b810190808035906020019092919050505061152f565b604051808881526020018773ffffffffffffffffffffffffffffffffffffffff1673ffffffffffffffffffffffffffffffffffffffff168152602001806020018681526020018581526020018060200180602001848103845289818151815260200191508051906020019080838360005b8381101561083957808201518184015260208101905061081e565b50505050905090810190601f1680156108665780820380516001836020036101000a031916815260200191505b50848103835286818151815260200191508051906020019080838360005b8381101561089f578082015181840152602081019050610884565b50505050905090810190601f1680156108cc5780820380516001836020036101000a031916815260200191505b50848103825285818151815260200191508051906020019080838360005b838110156109055780820151818401526020810190506108ea565b50505050905090810190601f1680156109325780820380516001836020036101000a031916815260200191505b509a505050505050505050505060405180910390f35b6109746004803603602081101561095e57600080fd5b810190808035906020019092919050505061180d565b6040518082815260200191505060405180910390f35b61099261184e565b6040518082815260200191505060405180910390f35b6109e8600480360360608110156109be57600080fd5b8101908080359060200190929190803590602001909291908035906020019092919050505061185b565b6040518082815260200191505060405180910390f35b610a5e60048036036080811015610a1457600080fd5b8101908080359060200190929190803573ffffffffffffffffffffffffffffffffffffffff16906020019092919080359060200190929190803590602001909291905050506119e4565b6040518082815260200191505060405180910390f35b610a7c611bc3565b6040518082815260200191505060405180910390f35b600081600560008581526020019081526020016000206000019080519060200190610abe929190611bcf565b506004600560008581526020019081526020016000209080600181540180825580915050600190039060005260206000200160009091909190915060008201816000019080546001816001161561010002031660029004610b20929190611c4f565b50505082905092915050565b60048181548110610b3957fe5b90600052602060002001600091509050806000018054600181600116156101000203166002900480601f016020809104026020016040519081016040528092919081815260200182805460018160011615610100020316600290048015610be15780601f10610bb657610100808354040283529160200191610be1565b820191906000526020600020905b815481529060010190602001808311610bc457829003601f168201915b5050505050905081565b60008181548110610bf857fe5b90600052602060002090600802016000915090508060000154908060010154908060020160009054906101000a900473ffffffffffffffffffffffffffffffffffffffff1690806003018054600181600116156101000203166002900480601f016020809104026020016040519081016040528092919081815260200182805460018160011615610100020316600290048015610cd65780601f10610cab57610100808354040283529160200191610cd6565b820191906000526020600020905b815481529060010190602001808311610cb957829003601f168201915b505050505090806004018054600181600116156101000203166002900480601f016020809104026020016040519081016040528092919081815260200182805460018160011615610100020316600290048015610d745780601f10610d4957610100808354040283529160200191610d74565b820191906000526020600020905b815481529060010190602001808311610d5757829003601f168201915b505050505090806005018054600181600116156101000203166002900480601f016020809104026020016040519081016040528092919081815260200182805460018160011615610100020316600290048015610e125780601f10610de757610100808354040283529160200191610e12565b820191906000526020600020905b815481529060010190602001808311610df557829003601f168201915b5050505050908060060154908060070154905088565b60065481565b60028181548110610e3b57fe5b906000526020600020016000915090508060000154905081565b6000806006549050806001600083815260200190815260200160002060000181905550886001600083815260200190815260200160002060010181905550876001600083815260200190815260200160002060020160006101000a81548173ffffffffffffffffffffffffffffffffffffffff021916908373ffffffffffffffffffffffffffffffffffffffff16021790555086600160008381526020019081526020016000206003019080519060200190610f12929190611bcf565b5085600160008381526020019081526020016000206004019080519060200190610f3d929190611bcf565b5084600160008381526020019081526020016000206005019080519060200190610f68929190611bcf565b5083600160008381526020019081526020016000206006018190555082600160008381526020019081526020016000206007018190555080600360008b815260200190815260200160002060000181905550600060016000838152602001908152602001600020908060018154018082558091505060019003906000526020600020906008020160009091909190915060008201548160000155600182015481600101556002820160009054906101000a900473ffffffffffffffffffffffffffffffffffffffff168160020160006101000a81548173ffffffffffffffffffffffffffffffffffffffff021916908373ffffffffffffffffffffffffffffffffffffffff1602179055506003820181600301908054600181600116156101000203166002900461109a929190611c4f565b50600482018160040190805460018160011615610100020316600290046110c2929190611c4f565b50600582018160050190805460018160011615610100020316600290046110ea929190611c4f565b50600682015481600601556007820154816007015550506002600360008b8152602001908152602001600020908060018154018082558091505060019003906000526020600020016000909190919091506000820154816000015550506006600081548092919060010191905055507f31d8c88179a56337dd98a2a80e308d863891b2ba44661f2cf33dba9423cb9d92600160008381526020019081526020016000206000015460016000848152602001908152602001600020600101546001600085815260200190815260200160002060020160009054906101000a900473ffffffffffffffffffffffffffffffffffffffff166001600086815260200190815260200160002060030160016000878152602001908152602001600020600401600160008881526020019081526020016000206005016001600089815260200190815260200160002060060154600160008a815260200190815260200160002060070154604051808981526020018881526020018773ffffffffffffffffffffffffffffffffffffffff1673ffffffffffffffffffffffffffffffffffffffff16815260200180602001806020018060200186815260200185815260200184810384528981815460018160011615610100020316600290048152602001915080546001816001161561010002031660029004801561132a5780601f106112ff5761010080835404028352916020019161132a565b820191906000526020600020905b81548152906001019060200180831161130d57829003601f168201915b50508481038352888181546001816001161561010002031660029004815260200191508054600181600116156101000203166002900480156113ad5780601f10611382576101008083540402835291602001916113ad565b820191906000526020600020905b81548152906001019060200180831161139057829003601f168201915b50508481038252878181546001816001161561010002031660029004815260200191508054600181600116156101000203166002900480156114305780601f1061140557610100808354040283529160200191611430565b820191906000526020600020905b81548152906001019060200180831161141357829003601f168201915b50509b50505050505050505050505060405180910390a180915050979650505050505050565b6060611460611cd6565b60056000848152602001908152602001600020604051806020016040529081600082018054600181600116156101000203166002900480601f0160208091040260200160405190810160405280929190818152602001828054600181600116156101000203166002900480156115175780601f106114ec57610100808354040283529160200191611517565b820191906000526020600020905b8154815290600101906020018083116114fa57829003601f168201915b50505050508152505090508060000151915050919050565b6000806060600080606080611542611ce9565b600160008a81526020019081526020016000206040518061010001604052908160008201548152602001600182015481526020016002820160009054906101000a900473ffffffffffffffffffffffffffffffffffffffff1673ffffffffffffffffffffffffffffffffffffffff1673ffffffffffffffffffffffffffffffffffffffff168152602001600382018054600181600116156101000203166002900480601f0160208091040260200160405190810160405280929190818152602001828054600181600116156101000203166002900480156116645780601f1061163957610100808354040283529160200191611664565b820191906000526020600020905b81548152906001019060200180831161164757829003601f168201915b50505050508152602001600482018054600181600116156101000203166002900480601f0160208091040260200160405190810160405280929190818152602001828054600181600116156101000203166002900480156117065780601f106116db57610100808354040283529160200191611706565b820191906000526020600020905b8154815290600101906020018083116116e957829003601f168201915b50505050508152602001600582018054600181600116156101000203166002900480601f0160208091040260200160405190810160405280929190818152602001828054600181600116156101000203166002900480156117a85780601f1061177d576101008083540402835291602001916117a8565b820191906000526020600020905b81548152906001019060200180831161178b57829003601f168201915b50505050508152602001600682015481526020016007820154815250509050806020015181604001518260a001518360c001518460e0015185606001518660800151849450819150809050975097509750975097509750975050919395979092949650565b6000611817611d4d565b6003600084815260200190815260200160002060405180602001604052908160008201548152505090508060000151915050919050565b6000600280549050905090565b6000826001600086815260200190815260200160002060060181905550816001600086815260200190815260200160002060070181905550600060016000868152602001908152602001600020908060018154018082558091505060019003906000526020600020906008020160009091909190915060008201548160000155600182015481600101556002820160009054906101000a900473ffffffffffffffffffffffffffffffffffffffff168160020160006101000a81548173ffffffffffffffffffffffffffffffffffffffff021916908373ffffffffffffffffffffffffffffffffffffffff16021790555060038201816003019080546001816001161561010002031660029004611973929190611c4f565b506004820181600401908054600181600116156101000203166002900461199b929190611c4f565b50600582018160050190805460018160011615610100020316600290046119c3929190611c4f565b50600682015481600601556007820154816007015550508390509392505050565b6000836001600087815260200190815260200160002060020160006101000a81548173ffffffffffffffffffffffffffffffffffffffff021916908373ffffffffffffffffffffffffffffffffffffffff160217905550826001600087815260200190815260200160002060060181905550816001600087815260200190815260200160002060070181905550600060016000878152602001908152602001600020908060018154018082558091505060019003906000526020600020906008020160009091909190915060008201548160000155600182015481600101556002820160009054906101000a900473ffffffffffffffffffffffffffffffffffffffff168160020160006101000a81548173ffffffffffffffffffffffffffffffffffffffff021916908373ffffffffffffffffffffffffffffffffffffffff16021790555060038201816003019080546001816001161561010002031660029004611b51929190611c4f565b5060048201816004019080546001816001161561010002031660029004611b79929190611c4f565b5060058201816005019080546001816001161561010002031660029004611ba1929190611c4f565b5060068201548160060155600782015481600701555050849050949350505050565b60008080549050905090565b828054600181600116156101000203166002900490600052602060002090601f016020900481019282601f10611c1057805160ff1916838001178555611c3e565b82800160010185558215611c3e579182015b82811115611c3d578251825591602001919060010190611c22565b5b509050611c4b9190611d60565b5090565b828054600181600116156101000203166002900490600052602060002090601f016020900481019282601f10611c885780548555611cc5565b82800160010185558215611cc557600052602060002091601f016020900482015b82811115611cc4578254825591600101919060010190611ca9565b5b509050611cd29190611d60565b5090565b6040518060200160405280606081525090565b6040518061010001604052806000815260200160008019168152602001600073ffffffffffffffffffffffffffffffffffffffff16815260200160608152602001606081526020016060815260200160008019168152602001600080191681525090565b6040518060200160405280600081525090565b611d8291905b80821115611d7e576000816000905550600101611d66565b5090565b9056fea2646970667358221220e8fe6dace91a9e0a5d5045a6c78eb72ae16d32b8757022ce51676aeb0bfe432764736f6c63430006020033",
  "source": "pragma solidity >=0.4.22 <0.8.0;\r\n\r\n/**\r\n * @title Letter Of Credit\r\n * @author Gaurav Kaushik\r\n * @dev The Letter Of Credit contract is meant to create, update and read a Letter Of Credit.\r\n */\r\n\r\ncontract LetterOfCredits {\r\n    struct LetterOfCredit {\r\n        uint256 LCId;\r\n        bytes32 LCTokenNumber;\r\n        address OwnerAddress;\r\n        string BuyerMetadata;\r\n        string SellerMetadata;\r\n        string ProductMetadata;\r\n        bytes32 LCStatus;\r\n        bytes32 LCTimestamp;\r\n    }\r\n\r\n    struct LCID {\r\n        uint256 LCId;\r\n    }\r\n\r\n    struct LCTokenURI {\r\n        string TokenURI;\r\n    }\r\n\r\n    event createLCEvent(\r\n        uint256 LCId,\r\n        bytes32 LCTokenNumber,\r\n        address OwnerAddress,\r\n        string BuyerMetadata,\r\n        string SellerMetadata,\r\n        string ProductMetadata,\r\n        bytes32 LCStatus,\r\n        bytes32 LCTimestamp\r\n    );\r\n\r\n    event updateLCEvent(\r\n        uint256 LCId,\r\n        bytes32 LCTokenNumber,\r\n        string ProductMetadata,\r\n        bytes32 LCStatus,\r\n        bytes32 LCTimestamp\r\n    );\r\n\r\n    LetterOfCredit[] public LetterOfCreditArray;\r\n    mapping(uint256 => LetterOfCredit) letterOfCredits;\r\n\r\n    LCID[] public LCIDArray;\r\n    mapping(bytes32 => LCID) lcIDs;\r\n\r\n    LCTokenURI[] public TokenURIArray;\r\n    mapping(uint256 => LCTokenURI) tokenURIs;\r\n\r\n    uint256 public counter = 1;\r\n\r\n    function createLC(\r\n        bytes32 LCTokenNumber,\r\n        address OwnerAddress,\r\n        string memory BuyerMetadata,\r\n        string memory SellerMetadata,\r\n        string memory ProductMetadata,\r\n        bytes32 LCStatus,\r\n        bytes32 LCTimestamp\r\n    ) public returns (uint256) {\r\n        uint256 LCId = counter;\r\n        letterOfCredits[LCId].LCId = LCId;\r\n        letterOfCredits[LCId].LCTokenNumber = LCTokenNumber;\r\n        letterOfCredits[LCId].OwnerAddress = OwnerAddress;\r\n        letterOfCredits[LCId].BuyerMetadata = BuyerMetadata;\r\n        letterOfCredits[LCId].SellerMetadata = SellerMetadata;\r\n        letterOfCredits[LCId].ProductMetadata = ProductMetadata;\r\n        letterOfCredits[LCId].LCStatus = LCStatus;\r\n        letterOfCredits[LCId].LCTimestamp = LCTimestamp;\r\n        lcIDs[LCTokenNumber].LCId = LCId;\r\n\r\n        LetterOfCreditArray.push(letterOfCredits[LCId]);\r\n        LCIDArray.push(lcIDs[LCTokenNumber]);\r\n        counter++;\r\n        emit createLCEvent(\r\n            letterOfCredits[LCId].LCId,\r\n            letterOfCredits[LCId].LCTokenNumber,\r\n            letterOfCredits[LCId].OwnerAddress,\r\n            letterOfCredits[LCId].BuyerMetadata,\r\n            letterOfCredits[LCId].SellerMetadata,\r\n            letterOfCredits[LCId].ProductMetadata,\r\n            letterOfCredits[LCId].LCStatus,\r\n            letterOfCredits[LCId].LCTimestamp\r\n        );\r\n\r\n        return LCId;\r\n    }\r\n\r\n    function readLC(uint256 LCId)\r\n        public\r\n        view\r\n        returns (\r\n            bytes32 LCTokenNumber,\r\n            address OwnerAddress,\r\n            string memory ProductMetadata,\r\n            bytes32 LCStatus,\r\n            bytes32 LCTimestamp,\r\n            string memory BuyerMetadata,\r\n            string memory SellerMetadata\r\n        )\r\n    {\r\n        LetterOfCredit memory loc = letterOfCredits[LCId];\r\n        return (\r\n            loc.LCTokenNumber,\r\n            loc.OwnerAddress,\r\n            loc.ProductMetadata,\r\n            loc.LCStatus,\r\n            loc.LCTimestamp,\r\n            loc.BuyerMetadata,\r\n            loc.SellerMetadata\r\n        );\r\n    }\r\n\r\n    function updateLCStatus(\r\n        uint256 LCId,\r\n        bytes32 LCStatus,\r\n        bytes32 LCTimestamp\r\n    ) public returns (uint256) {\r\n        letterOfCredits[LCId].LCStatus = LCStatus;\r\n        letterOfCredits[LCId].LCTimestamp = LCTimestamp;\r\n        LetterOfCreditArray.push(letterOfCredits[LCId]);\r\n\r\n        return LCId;\r\n    }\r\n\r\n    function updateLCOwnerAndStatus(\r\n        uint256 LCId,\r\n        address OwnerAddress,\r\n        bytes32 LCStatus,\r\n        bytes32 LCTimestamp\r\n    ) public returns (uint256) {\r\n        letterOfCredits[LCId].OwnerAddress = OwnerAddress;\r\n        letterOfCredits[LCId].LCStatus = LCStatus;\r\n        letterOfCredits[LCId].LCTimestamp = LCTimestamp;\r\n        LetterOfCreditArray.push(letterOfCredits[LCId]);\r\n\r\n        return LCId;\r\n    }\r\n\r\n    function setLCTokenURI(uint256 LCId, string memory TokenURI)\r\n        public\r\n        returns (uint256)\r\n    {\r\n        tokenURIs[LCId].TokenURI = TokenURI;\r\n        TokenURIArray.push(tokenURIs[LCId]);\r\n\r\n        return LCId;\r\n    }\r\n\r\n    function getLCIDArrayLength() public view returns (uint256) {\r\n        return (LCIDArray.length);\r\n    }\r\n\r\n    function getLetterOfCreditArrayLength() public view returns (uint256) {\r\n        return (LetterOfCreditArray.length);\r\n    }\r\n\r\n    /* Get LCID from LCTokenNumber */\r\n    function getLCId(bytes32 LCTokenNumber) public view returns (uint256 LCId) {\r\n        LCID memory loc = lcIDs[LCTokenNumber];\r\n        return (loc.LCId);\r\n    }\r\n\r\n    function getLCTokenURI(uint256 LCId)\r\n        public\r\n        view\r\n        returns (string memory TokenURI)\r\n    {\r\n        LCTokenURI memory lcUri = tokenURIs[LCId];\r\n        return (lcUri.TokenURI);\r\n    }\r\n}\r\n\r\n/* This funcationality is not required for POC */\r\n/*  function updateLC(\r\n        uint256 LCId,\r\n        bytes32 LCTokenNumber,\r\n        string memory ProductMetadata,\r\n        bytes32 LCStatus\r\n    ) public returns (uint256) {\r\n        letterOfCredits[LCId].ProductMetadata = ProductMetadata;\r\n        letterOfCredits[LCId].LCStatus = LCStatus;\r\n        LetterOfCreditArray.push(letterOfCredits[LCId]);\r\n        emit updateLCEvent(\r\n            letterOfCredits[LCId].LCId,\r\n            letterOfCredits[LCId].LCTokenNumber,\r\n            letterOfCredits[LCId].ProductMetadata,\r\n            letterOfCredits[LCId].LCStatus\r\n        );\r\n\r\n        return LCId;\r\n    }*/\r\n",
  "sourcePath": "/Truffle/contracts/LetterOfCredits.sol",
  "compiler": {
    "name": "solc",
    "version": "0.6.2+commit.bacdbe57.Emscripten.clang"
  },
  "schemaVersion": "3.2.2",
  "updatedAt": "2020-11-09T18:00:58.383Z",
  "networkType": "ethereum",
  "devdoc": {
    "author": "Gaurav Kaushik",
    "details": "The Letter Of Credit contract is meant to create, update and read a Letter Of Credit.",
    "methods": {},
    "title": "Letter Of Credit"
  },
  "userdoc": {
    "methods": {}
  }
}