{
  "contractName": "Names",
  "abi": [
    {
      "inputs": [],
      "stateMutability": "nonpayable",
      "type": "constructor"
    },
    {
      "inputs": [],
      "name": "getUserArr",
      "outputs": [
        {
          "internalType": "bytes32[]",
          "name": "",
          "type": "bytes32[]"
        }
      ],
      "stateMutability": "view",
      "type": "function",
      "constant": true
    },
    {
      "inputs": [
        {
          "internalType": "bytes32",
          "name": "_userName",
          "type": "bytes32"
        },
        {
          "internalType": "address",
          "name": "_from",
          "type": "address"
        },
        {
          "internalType": "string",
          "name": "_name",
          "type": "string"
        },
        {
          "internalType": "string",
          "name": "Location",
          "type": "string"
        }
      ],
      "name": "setUser",
      "outputs": [
        {
          "internalType": "bool",
          "name": "",
          "type": "bool"
        }
      ],
      "stateMutability": "nonpayable",
      "type": "function"
    },
    {
      "inputs": [
        {
          "internalType": "bytes32",
          "name": "_userName",
          "type": "bytes32"
        }
      ],
      "name": "getUser",
      "outputs": [
        {
          "internalType": "string",
          "name": "",
          "type": "string"
        },
        {
          "internalType": "address",
          "name": "",
          "type": "address"
        },
        {
          "internalType": "string",
          "name": "",
          "type": "string"
        }
      ],
      "stateMutability": "view",
      "type": "function",
      "constant": true
    },
    {
      "inputs": [
        {
          "internalType": "address",
          "name": "_address",
          "type": "address"
        }
      ],
      "name": "getUserName",
      "outputs": [
        {
          "internalType": "string",
          "name": "",
          "type": "string"
        }
      ],
      "stateMutability": "view",
      "type": "function",
      "constant": true
    }
  ],
  "bytecode": "0x608060405234801561001057600080fd5b506040518060400160405280600581526020017f4f776e65720000000000000000000000000000000000000000000000000000008152506000807f6f776e65720000000000000000000000000000000000000000000000000000008152602001908152602001600020600001908051906020019061008f9291906101d8565b50336000807f6f776e6572000000000000000000000000000000000000000000000000000000815260200190815260200160002060010160006101000a81548173ffffffffffffffffffffffffffffffffffffffff021916908373ffffffffffffffffffffffffffffffffffffffff160217905550600280600181540180825580915050600190039060005260206000200160007f6f776e65720000000000000000000000000000000000000000000000000000009091909150556040518060400160405280600581526020017f4f776e6572000000000000000000000000000000000000000000000000000000815250600160003373ffffffffffffffffffffffffffffffffffffffff1673ffffffffffffffffffffffffffffffffffffffff16815260200190815260200160002090805190602001906101d29291906101d8565b5061027d565b828054600181600116156101000203166002900490600052602060002090601f016020900481019282601f1061021957805160ff1916838001178555610247565b82800160010185558215610247579182015b8281111561024657825182559160200191906001019061022b565b5b5090506102549190610258565b5090565b61027a91905b8082111561027657600081600090555060010161025e565b5090565b90565b6109c78061028c6000396000f3fe608060405234801561001057600080fd5b5060043610610069576000357c0100000000000000000000000000000000000000000000000000000000900480633a835bf71461006e5780636517579c146100cd578063d84f55ee14610213578063e3f14909146102d0575b600080fd5b610076610464565b6040518080602001828103825283818151815260200191508051906020019060200280838360005b838110156100b957808201518184015260208101905061009e565b505050509050019250505060405180910390f35b6100f9600480360360208110156100e357600080fd5b81019080803590602001909291905050506104bc565b60405180806020018473ffffffffffffffffffffffffffffffffffffffff1673ffffffffffffffffffffffffffffffffffffffff16815260200180602001838103835286818151815260200191508051906020019080838360005b8381101561016f578082015181840152602081019050610154565b50505050905090810190601f16801561019c5780820380516001836020036101000a031916815260200191505b50838103825284818151815260200191508051906020019080838360005b838110156101d55780820151818401526020810190506101ba565b50505050905090810190601f1680156102025780820380516001836020036101000a031916815260200191505b509550505050505060405180910390f35b6102556004803603602081101561022957600080fd5b81019080803573ffffffffffffffffffffffffffffffffffffffff169060200190929190505050610667565b6040518080602001828103825283818151815260200191508051906020019080838360005b8381101561029557808201518184015260208101905061027a565b50505050905090810190601f1680156102c25780820380516001836020036101000a031916815260200191505b509250505060405180910390f35b61044a600480360360808110156102e657600080fd5b8101908080359060200190929190803573ffffffffffffffffffffffffffffffffffffffff1690602001909291908035906020019064010000000081111561032d57600080fd5b82018360208201111561033f57600080fd5b8035906020019184600183028401116401000000008311171561036157600080fd5b91908080601f016020809104026020016040519081016040528093929190818152602001838380828437600081840152601f19601f820116905080830192505050505050509192919290803590602001906401000000008111156103c457600080fd5b8201836020820111156103d657600080fd5b803590602001918460018302840111640100000000831117156103f857600080fd5b91908080601f016020809104026020016040519081016040528093929190818152602001838380828437600081840152601f19601f820116905080830192505050505050509192919290505050610748565b604051808215151515815260200191505060405180910390f35b606060028054806020026020016040519081016040528092919081815260200182805480156104b257602002820191906000526020600020905b81548152602001906001019080831161049e575b5050505050905090565b60606000606060008085815260200190815260200160002060000160008086815260200190815260200160002060010160009054906101000a900473ffffffffffffffffffffffffffffffffffffffff16600080878152602001908152602001600020600201828054600181600116156101000203166002900480601f0160208091040260200160405190810160405280929190818152602001828054600181600116156101000203166002900480156105b75780601f1061058c576101008083540402835291602001916105b7565b820191906000526020600020905b81548152906001019060200180831161059a57829003601f168201915b50505050509250808054600181600116156101000203166002900480601f0160208091040260200160405190810160405280929190818152602001828054600181600116156101000203166002900480156106535780601f1061062857610100808354040283529160200191610653565b820191906000526020600020905b81548152906001019060200180831161063657829003601f168201915b505050505090509250925092509193909250565b6060600160008373ffffffffffffffffffffffffffffffffffffffff1673ffffffffffffffffffffffffffffffffffffffff1681526020019081526020016000208054600181600116156101000203166002900480601f01602080910402602001604051908101604052809291908181526020018280546001816001161561010002031660029004801561073c5780601f106107115761010080835404028352916020019161073c565b820191906000526020600020905b81548152906001019060200180831161071f57829003601f168201915b50505050509050919050565b600060011515610757866108c0565b1515141561076157fe5b82600080878152602001908152602001600020600001908051906020019061078a9291906108ec565b508360008087815260200190815260200160002060010160006101000a81548173ffffffffffffffffffffffffffffffffffffffff021916908373ffffffffffffffffffffffffffffffffffffffff1602179055508160008087815260200190815260200160002060020190805190602001906108089291906108ec565b50600160008087815260200190815260200160002060030160006101000a81548160ff021916908315150217905550600285908060018154018082558091505060019003906000526020600020016000909190919091505582600160008673ffffffffffffffffffffffffffffffffffffffff1673ffffffffffffffffffffffffffffffffffffffff16815260200190815260200160002090805190602001906108b39291906108ec565b5060019050949350505050565b600080600083815260200190815260200160002060030160009054906101000a900460ff169050919050565b828054600181600116156101000203166002900490600052602060002090601f016020900481019282601f1061092d57805160ff191683800117855561095b565b8280016001018555821561095b579182015b8281111561095a57825182559160200191906001019061093f565b5b509050610968919061096c565b5090565b61098e91905b8082111561098a576000816000905550600101610972565b5090565b9056fea26469706673582212200322965e8fe19d1a514516c6e3f108442c5346f562cc934764d016d613a926d264736f6c63430006020033",
  "source": "pragma solidity >=0.4.22 <0.8.0;\r\n\r\n/**\r\n * @title Names Smart Contract\r\n * @author Gaurav Kaushik\r\n * @dev Stores friendly names for accounts.\r\n */\r\n\r\ncontract Names {\r\n    struct user {\r\n        string name;\r\n        address addr;\r\n        string Location;\r\n        bool valid;\r\n    }\r\n\r\n    //mapping(address => string) private names;\r\n\r\n    mapping(bytes32 => user) private users;\r\n\r\n    mapping(address => string) private userNames;\r\n\r\n    bytes32[] userArr; // array of user emails\r\n\r\n    /**\r\n    @dev Constructor - gives the contract creator the friendly name \"Owner\"\r\n    */\r\n\r\n    constructor() public {\r\n        users[\"owner\"].name = \"Owner\";\r\n        users[\"owner\"].addr = msg.sender;\r\n        userArr.push(\"owner\");\r\n        userNames[msg.sender] = \"Owner\";\r\n    }\r\n\r\n    /**\r\n    @dev Get the array of users\r\n     */\r\n    function getUserArr() public view returns (bytes32[] memory) {\r\n        return userArr;\r\n    }\r\n\r\n    function isValidUser(bytes32 _userName) private view returns (bool) {\r\n        return users[_userName].valid;\r\n    }\r\n\r\n    /**\r\n    @dev Store a friendly name and address which mapps with email\r\n    @param _userName - the userName of user\r\n    @param _name - name of the use\r\n    */\r\n    function setUser(\r\n        bytes32 _userName,\r\n        address _from,\r\n        string memory _name,\r\n        string memory Location\r\n    ) public returns (bool) {\r\n        assert(isValidUser(_userName) != true);\r\n        users[_userName].name = _name;\r\n        users[_userName].addr = _from;\r\n        users[_userName].Location = Location;\r\n        users[_userName].valid = true;\r\n        userArr.push(_userName);\r\n        userNames[_from] = _name;\r\n        return true;\r\n    }\r\n\r\n    /**\r\n    @dev Retrieve the friendly name\r\n    @param _userName - the userName of user\r\n    @return name - the corresponding friendly name\r\n    @return addr - address of the use\r\n    */\r\n    function getUser(bytes32 _userName)\r\n        public\r\n        view\r\n        returns (\r\n            string memory,\r\n            address,\r\n            string memory\r\n        )\r\n    {\r\n        return (\r\n            users[_userName].name,\r\n            users[_userName].addr,\r\n            users[_userName].Location\r\n        );\r\n    }\r\n\r\n    /**\r\n    @dev Retrieve the friendly name\r\n    @param _address - The address of user\r\n    @return name -The name os the user\r\n    */\r\n    function getUserName(address _address) public view returns (string memory) {\r\n        return userNames[_address];\r\n    }\r\n}\r\n",
  "sourcePath": "/Truffle/contracts/Names.sol",
  "compiler": {
    "name": "solc",
    "version": "0.6.2+commit.bacdbe57.Emscripten.clang"
  },
  "schemaVersion": "3.2.2",
  "updatedAt": "2020-11-09T18:01:14.438Z",
  "networkType": "ethereum",
  "devdoc": {
    "author": "Gaurav Kaushik",
    "details": "Stores friendly names for accounts.",
    "methods": {
      "constructor": {
        "details": "Constructor - gives the contract creator the friendly name \"Owner\""
      },
      "getUser(bytes32)": {
        "details": "Retrieve the friendly name",
        "params": {
          "_userName": "- the userName of user"
        },
        "returns": {
          "_0": "name - the corresponding friendly name",
          "_1": "addr - address of the use"
        }
      },
      "getUserArr()": {
        "details": "Get the array of users"
      },
      "getUserName(address)": {
        "details": "Retrieve the friendly name",
        "params": {
          "_address": "- The address of user"
        },
        "returns": {
          "_0": "name -The name os the user"
        }
      },
      "setUser(bytes32,address,string,string)": {
        "details": "Store a friendly name and address which mapps with email",
        "params": {
          "_name": "- name of the use",
          "_userName": "- the userName of user"
        }
      }
    },
    "title": "Names Smart Contract"
  },
  "userdoc": {
    "methods": {}
  }
}